:020000040800F2
:1000000098100020CD490008D1010008D301000854
:10001000D7010008DB010008DF0100080000000034
:10002000000000000000000000000000E5010008E2
:10003000E301000800000000E7010008E9010008F2
:10004000E7490008E7490008E74900089509000862
:10005000E7490008E7490008E7490008D90900080E
:10006000E7490008E7490008E7490008E7490008B0
:10007000E7490008E7490008E7490008E7490008A0
:10008000E7490008E7490008E7490008E749000890
:10009000E7490008E7490008E7490008E749000880
:1000A000E7490008E7490008E7490008E749000870
:1000B000E7490008E7490008E7490008E749000860
:1000C000E7490008E7490008E7490008E749000850
:1000D000E7490008E7490008E7490008E749000840
:1000E00097090008E7490008E749000800F002F80E
:1000F00000F05EF80AA090E8000C82448344AAF164
:100100000107DA4501D100F053F8AFF2090EBAE861
:100110000F0013F0010F18BFFB1A43F0010318473B
:10012000A84B0000C84B000010F8013B0A4413F034
:10013000030408BF10F8014B1D1108BF10F8015B44
:10014000641E05D010F8016B641E01F8016BF9D133
:10015000002D15D010F8014B03F00C030C2BA1EB74
:1001600004040ABF10F8013BA4EB8314A4EB03249E
:1001700005F1010314F8016B5B1E01F8016BF9D561
:10018000914238BF10F8013BD1D3704700230024BF
:1001900000250026103A28BF78C1FBD8520728BF97
:1001A00030C148BF0B6070471FB51FBD10B510BDF3
:1001B00004F052FD1146FFF7F7FF00F033FC04F0A6
:1001C00070FD03B4FFF7F2FF03BC04F075FD0000FF
:1001D000704700BFFEE700BFFEE700BFFEE700BFBD
:1001E000FEE770477047704770B5FE480068401CD6
:1001F000FC49086008460068FB49B0FBF1F201FBCE
:10020000120008B903F018F8F64800686421B0FB42
:10021000F1F201FB120000287ED14FF40051F348A7
:1002200004F054F928B14FF40051F04804F05DF99E
:1002300004E04FF40051ED4804F055F903F024FABE
:1002400003F040FAEA4908800521EA4800F055FC2D
:10025000E94AEA49E74800F097FCE6480078E749B0
:100260000870E4480079012181EAE01000287DD07F
:10027000E3480068401CE24908600846006840F610
:10028000B831884273D90121282003F03FFE4D2068
:10029000DC49087041204870542088704420C870A0
:1002A00049200871452048714E2088713A20C87154
:1002B00005EBC400401C0A2190FBF1F0D249085C18
:1002C000D049087205EBC400401C0A2190FBF1F2F2
:1002D00001FB1200CC49085CCA4948723A20887276
:1002E000CA48C0780A2190FBF1F0C749085CC549AB
:1002F000C872C648C0780A2190FBF1F201FB1200D7
:10030000C149085CBF49087368204873BF48007939
:100310000A2190FBF1F000E03BE3BB49085CB949DE
:100320008873BA4800790A2190FBF1F201FB1200B0
:10033000B549085CB349C8736D200874B348807828
:100340000A2190FBF1F0B049085CAE494874AF480F
:1003500080780A2190FBF1F201FB1200AA49085CA7
:10036000A84988742F20C874A84801E02EE030E026
:1003700040780A2190FBF1F0A349085CA149087577
:10038000A24840780A2190FBF1F201FB12009E493D
:10039000085C9C4948752F2088759C4800780A2184
:1003A00090FBF1F09849085C9649C8759748007829
:1003B0000A2190FBF1F201FB12009349085C91497C
:1003C00008761922042003F0FDF802E000208C4991
:1003D000086088480079C0F3801020B14FF416708F
:1003E0008B49086003E04FF49670894908608148A2
:1003F0000079C0F3401000287DD086480068401C7A
:1004000084490860084600681E2875D900200860E5
:100410000121252003F07AFD43207A490870482005
:100420004870552088704F20C8704E2008714720B2
:100430004871312088713A20C87105EBC400401C16
:100440000A2190FBF1F07049085C6E49087205EBD7
:10045000C400401C0A2190FBF1F201FB12006A4922
:10046000085C684948723A2088726848C0780A2156
:1004700090FBF1F06449085C6249C8726348C07837
:100480000A2190FBF1F201FB12005F49085C5D4913
:100490000873682048735D4800790A2190FBF1F0E9
:1004A0005949085C57498873584800790A2190FBDC
:1004B000F1F201FB12005449085C5249C8736D20E7
:1004C0000874524880780A2190FBF1F04E49085C8C
:1004D0004C4948744D4880780A2190FBF1F201FBA9
:1004E00012004949085C474988742D20C874474860
:1004F00040780A2101E02CE02EE090FBF1F0424927
:10050000085C40490875414840780A2190FBF1F2A7
:1005100001FB12003C49085C3A4948752F20887558
:100520003A4800780A2190FBF1F03749085C3549D8
:10053000C875364800780A2190FBF1F201FB1200E1
:100540003149085C2F4908761922042003F03AF853
:1005500002E000202F490860002417E2002511E284
:100560002548015D0120A840014019B32148005DE4
:10057000284108B9012000E0002000F0010060B12E
:1005800005EBC401C8B2012103F0C0FC002005EB5B
:10059000C401214A42F82100F3E105EBC401C8B2CD
:1005A000002103F0B3FC002005EBC4011B4A42F814
:1005B0002100E6E10F48005D284108B9012000E074
:1005C000002000F0010000287ED0302005EBC4019F
:1005D000124A42F8210005EBC4000F4951F82000EF
:1005E0000B491DE014000020A0860100001001400E
:1005F000240000207C010020000000207701002062
:100600006801002072030020190000207101002001
:10061000080000206C01002028000020C8000020F5
:10062000096888420BD205EBC400F44951F8200058
:10063000401C05EBC401F14A42F82100A1E105EBA1
:10064000C400EE4951F82010ED4800684030814266
:10065000A2D25020EB490870482048704F20887083
:100660004E20C870472008713A204871012C16D1DD
:1006700005EBC400401C0A2190FBF1F0E249085C44
:10068000E049887105EBC400401C0A2190FBF1F29F
:1006900001FB1200DC49085CDA49C87113E005EB84
:1006A000C4000A2190FBF1F0D749085CD549887154
:1006B00005EBC4000A2190FBF1F201FB1200D249C4
:1006C000085CD049C87100E083E03A20CD49087247
:1006D000CE48C0780A2190FBF1F0CB49085CC949AB
:1006E0004872CA48C0780A2190FBF1F201FB12005F
:1006F000C549085CC34988726820C872C34800793C
:100700000A2190FBF1F0C049085CBE490873BF485C
:1007100000790A2190FBF1F201FB1200BA49085C52
:10072000B849487320208873B84880780A2190FB24
:10073000F1F0B549085CB349C873B44880780A2120
:1007400090FBF1F201FB1200AF49085CAD4908745F
:100750002F204874AD4840780A2190FBF1F0AA4957
:10076000085CA8498874A94840780A2190FBF1F2F6
:1007700001FB1200A449085CA249C8742F20087527
:10078000A24800780A2190FBF1F09F49085C9D493E
:1007900048759E4800780A2190FBF1F201FB120097
:1007A0009949085C974988753A20C875562008769B
:1007B000412048764F2088761B22042002F002FF59
:1007C0008F480068503005EBC4018C4A42F8210084
:1007D000D7E0002005EBC401884A42F8210005EB70
:1007E000C4008B4951F820000A280AD205EBC40046
:1007F00051F82000401C05EBC401854A42F8210055
:10080000BFE005EBC400824951F820001428DFD274
:1008100050207C490870482048704F2088704E2036
:10082000C870472008713A204871B4B905EBC4007C
:10083000401C0A2190FBF1F07349085C71498871F2
:1008400005EBC400401C0A2190FBF1F201FB1200F1
:100850006D49085C6B49C87113E005EBC4000A21BF
:1008600090FBF1F06849085C6649887105EBC400AB
:100870000A2190FBF1F201FB12006349085C614917
:10088000C8713A205F4908726048C0780A2190FB1D
:10089000F1F05D49085C5B4948725C48C0780A2108
:1008A00090FBF1F201FB12005749085C5549887230
:1008B0006820C872554800790A2190FBF1F052492E
:1008C000085C50490873514800790A2190FBF1F205
:1008D00001FB12004C49085C4A4948732020887388
:1008E0004A4880780A2190FBF1F04749085C454965
:1008F000C873464880780A2190FBF1F201FB120090
:100900004149085C3F4908742F2048743F484078AB
:100910000A2190FBF1F03C49085C3A4988743B4855
:1009200040780A2190FBF1F201FB12003649085C85
:100930003449C8742F200875344800780A2190FB88
:10094000F1F03149085C2F494875304800780A2198
:1009500090FBF1F201FB12002B49085C29498875D4
:100960003A20C8755220087641204876402005EB91
:10097000C401274A42F821001A222249042002F029
:1009800021FE6D1C082DFFF6EBAD641C042CFFF658
:10099000E5AD70BD704710B54FF4806003F07CFC8E
:1009A000C8B103F05DFA1B491B4A127888541A4AF1
:1009B0001278885C02F0E8FD17480078401C164960
:1009C000087008460078772801DB002008704FF493
:1009D00080601249086010BD10B5022003F05CFC75
:1009E00058B10F48006847F23051884202D90020C0
:1009F0000B49086002200949086010BD280000204A
:100A0000080000207203002019000020710100205E
:100A1000C8000020D8010020180000201404014064
:100A20006C01002002F06CFC02F02EFE00F036F8A3
:100A30000521164800F061F802F0FEFB144800683A
:100A40006422B0FBF2F1481EB0F1807F00D31BE0BE
:100A5000481E4FF0E022506150170F22002807DA9D
:100A600013071D0E0B4B00F00F04241F1D5503E050
:100A700013071C0E084B1C5400BF00204FF0E0224F
:100A800090610720106100BF00BFFEE777010020E2
:100A9000C401002018ED00E000E400E008B50121E9
:100AA0001C2003F02FFF10208DF8030003208DF889
:100AB00002000620ADF800006946474803F066FCD6
:100AC0004FF4C040ADF800006946444803F05EFCB6
:100AD00004208DF803008002ADF80000694640480C
:100AE00003F054FC04213C4803F0FDFC08BD00BFAA
:100AF0000100A0F10100FBD170472DE9F04105464E
:100B00000F460221344803F0EEFC4FF4FA70FFF771
:100B1000EEFF0421304803F0E8FC4FF4FA70FFF7D1
:100B2000E6FF04212C4803F0DEFC002428E0002628
:100B300022E00221284803F0D6FC4FF4FA70FFF7B8
:100B4000D6FF4FF48051264803F0B3FC28B1285D4E
:100B50000121B1400843285504E0285D0121B1403E
:100B60008843285502211C4803F0BFFC4FF4FA705B
:100B7000FFF7BDFF701CC6B2082EDADB601CC4B2E2
:100B8000BC42D4DBBDE8F08170B503460C460020C2
:100B90001EE000251554002116E01D5C0D4105F0F6
:100BA0000106255C0D4105F00105AE4205D1155C3D
:100BB00001268E40B543155404E0155C01268E4095
:100BC000354315544D1CE9B20829E6DB451CE8B253
:100BD0000528DEDB70BD0000000801400010014068
:100BE000000C014070B503460C4603E014F8015BAD
:100BF00003F8015B1500A2F10102F7D170BD30B519
:100C0000034601E003F8011B1400A2F10102F9D12F
:100C100030BDF0B503461C460D46002000BF16004F
:100C2000A2F1010207D014F8017B15F801CBA7EB64
:100C30000C063000F3D0F0BD024600E0521C1078E4
:100C400010B110788842F9D11078704770B5044619
:100C5000207910B3256B607801232A4604F1340112
:100C600002F01DF908B1012070BD00202071606AFA
:100C7000A84212D8E169606A0844A8420DD9E67812
:100C800009E0E0690544607801232A4604F1340153
:100C900002F005F9761E022EF3D20020E4E770B5CB
:100CA00004460D46206BA84210D02046FFF7CEFF29
:100CB00008B1012070BD607801232A4604F1340197
:100CC00002F0A3F808B10120F4E725630020F1E762
:100CD00070B504462046FFF7B9FF0546002D59D1EF
:100CE000207803284FD1607900284CD00020206361
:100CF0004FF40072002104F13400FFF780FF55210A
:100D000084F83212AA2184F83312522084F8340075
:100D100052213520015561213620015541213720CE
:100D20000155722184F8181284F81912412184F8AF
:100D30001A12612184F81B12217C84F81C12208A6B
:100D4000010A84F81D122069010C84F81E12206922
:100D5000010E84F81F12217B84F82012A089010A59
:100D600084F82112E068010C84F82212E068010E78
:100D700084F823126078012304F13401626902F0DF
:100D80008EF80020607160780022114602F0E2F8CF
:100D900000B10125284670BD0246891E9069801E5B
:100DA000884201D8002070479378D06A01FB030085
:100DB000F9E72DE9F04105460C46022C02D3A8695B
:100DC000A04202D80120BDE8F0812878012804D093
:100DD00002282CD003285AD13DE0274607EB5707BD
:100DE000686A00EB57212846FFF759FF00B14EE033
:100DF000C7F3080105F1340010F801807F1C686A10
:100E000000EB57212846FFF74AFF00B13FE0C7F348
:100E1000080105F13400405C48EA002804F00100B4
:100E200010B14FEA1810CEE7C8F30B00CBE7686AA1
:100E300000EB14212846FFF732FF00B127E040F213
:100E4000FF1000EA440105F134000E183078717883
:100E500040EA0120B7E7686A00EBD4112846FFF7A3
:100E60001EFF00B113E040F2FF1000EA840105F11B
:100E700034000E18F0780006B17840EA014071782D
:100E800040EA01203178084320F070409BE700BF22
:100E90004FF0FF3097E72DE9F04705460E4617461D
:100EA000022E02D3A869B04202D84FF002088AE0AD
:100EB0002878012804D0022841D003287DD154E0AD
:100EC000B14609EB5909686A00EB59212846FFF73A
:100ED000E6FE8046B8F1000F00D071E0C9F30801CA
:100EE00005F134000C1806F0010020B1F9B22078A9
:100EF00061F31F1000E03846207009F1010901205C
:100F00002871686A00EB59212846FFF7C8FE804621
:100F1000B8F1000F00D053E0C9F3080105F1340027
:100F20000C1806F0010010B1C7F3071005E0207897
:100F300000F0F000C7F303210843207040E0686A26
:100F400000EB16212846FFF7AAFE8046B8F1000FF5
:100F500000D035E040F2FF1000EA460105F1340010
:100F60000C182770380A60702AE0686A00EBD61106
:100F70002846FFF794FE8046B8F1000F00D01FE02E
:100F800040F2FF1000EA860105F134000C18E07809
:100F90000006A17840EA0140617840EA012021780A
:100FA000084300F0704007432770380A6070380C1F
:100FB000A070380EE07003E0FFE74FF0020800BFBA
:100FC00000BF012028714046BDE8F0872DE9F041BF
:100FD00004460E46022E02D3A069B04201D8022771
:100FE00025E000271FE031462046FFF7E2FE0546D8
:100FF00005B91BE0012D01D1022717E0681C08B9D3
:10100000012713E0002231462046FFF744FF074640
:1010100007B10BE02069401C20B12069401C206111
:10102000012060712E46A069B042DCD800BF38466E
:10103000BDE8F0812DE9F04704468946B9F1000F7B
:1010400006D1E76817B1A069B84211D801270FE0AF
:1010500049462046FFF7ADFE0646022E02D2012089
:10106000BDE8F087A069B04201D93046F8E74F46A5
:101070003D4600BF6D1CA069A84204D80225BD42B0
:1010800001D90020ECE729462046FFF792FE0646EC
:1010900006B909E0701C08B1012E01D13046DFE726
:1010A000BD42E7D10020DBE700BF6FF07042294668
:1010B0002046FFF7F0FE8046B8F1000F08D1B9F1E5
:1010C000000F05D02A4649462046FFF7E4FE804639
:1010D000B8F1000F09D1E5602069401C68B12069B2
:1010E000401E20610120607107E0B8F1010F02D1BC
:1010F0004FF0FF3000E0012005462846B0E72DE91B
:10110000F04104460E46E680A568012D03D0206814
:101110008069A84202D80220BDE8F0812DB920687C
:101120000078032801D12068856A65B9E5602068E8
:101130000089B04201DC0220EEE72068806A00EB03
:101140001610206120E020688078070112E029460F
:101150002068FFF72EFE0546681C08B90120DBE772
:10116000022D03D320688069A84201D80220D3E76A
:10117000F01B86B2BE42EADAE56029462068FFF736
:101180000BFE00EB161020612068343006F00F01D2
:1011900000EB411060610020BEE72DE9F0410446FC
:1011A000884600BFE088401C86B20EB1206910B9A5
:1011B0000420BDE8F08106F00F0000286DD1206901
:1011C000401C2061E06828B920680089B04264DCD6
:1011D0000420EEE720688078401E00EA1610002800
:1011E0005BD1E1682068FFF7E4FD0546012D01D8D9
:1011F0000220DEE7681C08B90120DAE72068806970
:10120000A84244D8B8F1000F01D10420D1E7E16829
:101210002068FFF70FFF05460DB90720C9E7012D2C
:1012200001D10220C5E7681C08B90120C1E7206888
:10123000FFF70CFD08B10120BBE7216801F1340084
:101240004FF400720021FFF7DAFC29462068FFF70F
:10125000A3FD2168086300270FE0012021680871C1
:101260002068FFF7F3FC08B10120A2E72068006BBB
:10127000401C21680863781CC7B220688078B84297
:10128000EBDC2068006BC01B2168086300BFE560D1
:1012900029462068FFF780FD2061E6802068343011
:1012A00006F00F0100EB41106061002081E72DE99D
:1012B000F04104460E4600212046FFF720FF054678
:1012C000EDB9002700BF21692068FFF7E8FC05465B
:1012D00005B113E060690078E52802D06069007804
:1012E00020B9781C0746B04201D107E00027012150
:1012F0002046FFF752FF0546002DE4D000BF2846E8
:10130000BDE8F08110B502468C7ECB7E44EA032016
:101310001378032B05D10C7D4B7D44EA032340EA6F
:10132000034010BD81760B0AC3760A0C02750B0EC2
:10133000437570472DE9F041044600212046FFF730
:10134000DEFE054615B12846BDE8F08100BF2169E3
:101350002068FFF7A4FC054605B116E066693778FA
:101360000FB9042511E0F07A00F0080030B90B2223
:101370003046A169FFF74DFC00B906E00021204688
:10138000FFF70BFF0546002DE1D000BF2846DBE745
:101390002DE9F04704468946042526E021692068A6
:1013A000FFF77DFC054605B122E0D4F8148098F8DB
:1013B00000600EB904251BE098F80B0000F03F0711
:1013C000E52E0BD02E2E09D00F2F07D0082F01D1DC
:1013D000012000E00020484500D109E0002120461E
:1013E000FFF7DBFE054605B102E020690028D5D1F4
:1013F00000BF0DB1002020612846BDE8F08770B520
:10140000044601212046FFF752FF054695B92169A0
:101410002068FFF744FC054665B920220021606979
:10142000FFF7EDFB0B22D4E90501FFF7DBFB012001
:1014300021680871284670BD70B50446E1882046D1
:10144000FFF75DFE05465DB921692068FFF727FCBF
:1014500005462DB9E52061690870012021680871F1
:10146000284670BD2DE9F35F0198D0F8009001E0A7
:1014700009F1010999F800002F28F9D099F8000026
:101480005C28F5D0009886690B2220213046FFF7B2
:10149000B6FB00252F46AB464FF0080A00BF584662
:1014A0000BF1010B19F80040202C03DD2F2C01D08B
:1014B0005C2C00D157E02E2C01D057450DD3BAF14A
:1014C000080F01D12E2C02D00620BDE8FC9F082772
:1014D0004FF00B0AA806050EE1E7802C01DB45F072
:1014E0000305812C01DB9F2C03DDE02C20DBFC2C91
:1014F0001EDC58460BF1010B19F80080B8F1400FC3
:1015000002DBB8F17E0F05DDB8F1800F06DBB8F124
:10151000FC0F03DCAAF10100B84201D80620D4E791
:1015200038467F1C345438467F1C06F8008019E08A
:101530002146FEA0FFF780FB08B10620C5E7412C3D
:1015400004DB5A2C02DC45F0020508E0612C06DBC6
:101550007A2C04DC45F00105A4F12000C4B2384621
:101560007F1C34549BE700BF09EB0B01019801601D
:10157000202C01DC042000E0002004460FB90620E6
:10158000A3E73078E52801D105203070BAF1080FC3
:1015900001D1A806050E05F00300012801D144F091
:1015A000100405F00C00042801D144F00804F47282
:1015B00000208AE7F0B505460B4603F109022F69C2
:1015C000002F40D06869067B00210AE0445C202C93
:1015D00000D108E0052C00D1E52400BF02F8014B42
:1015E000491C0829F2D300BF077A202F0FD02E27DD
:1015F00002F8017B082107E0445C202C00D105E0C3
:1016000000BF02F8014B491C0B29F5D300BFC77A74
:101610001F72C77F4FEA076C877F4CEA074C477FF2
:101620004CEA072790F81CC047EA0C071F6090F8A7
:1016300018C0477E4CEA07279F8090F816C0C77DE8
:101640004CEA0727DF8000271770F0BD2DE9F34132
:101650000446019800782F2803D0019800785C2870
:1016600002D10198401C01900020A06001980078F0
:10167000202807D200212046FFF741FD0546002023
:10168000606129E000BF01A92046FFF7EBFE054697
:1016900005B120E02046FFF74DFE0546A069C67A59
:1016A00045B1042D00D016E000BF06F0040000B9DB
:1016B000052510E006F0040000B10CE06769F87A37
:1016C00000F0100008B9052505E039462068FFF74D
:1016D00019FEA060D7E700BF2846BDE8FC8170B5C1
:1016E00004460D46607801232A4604F1340101F0D6
:1016F0008CFB08B1032070BD94F8321294F83302C9
:1017000041EA00204AF65521884201D00220F2E742
:1017100094F86D00010694F86C0041EA004194F8D9
:101720006B0041EA002094F86A10084320F07F40E3
:101730008249884201D10020DDE794F88900010642
:1017400094F8880041EA004194F8870041EA0020BB
:1017500094F88610084320F07F407849884201D1F0
:101760000020C8E70120C6E72DE9F74F88B00898A8
:101770000068019001980078303807900798092890
:101780000AD8019840783A2806D10198801C019027
:1017900008990198086001E000200790002109984D
:1017A0000160079818B10B200BB0BDE8F08F6449B9
:1017B000079851F820400CB90C20F5E7099804600F
:1017C000207878B1607801F019FB804608F00100BC
:1017D00040B90A9820B108F0040008B10A20E3E7F4
:1017E0000020E1E70020207007986070607801F029
:1017F0004AFA804608F0010008B10320D4E70A98AD
:1018000020B108F0040008B10A20CDE74FF000092C
:1018100049462046FFF763FF054600BF012D21D151
:101820004FF0000BBBF1000F03D0ABF1010000F053
:10183000FF0B4FF4DF7000EB0B1104F134000F18B5
:10184000387978B1F87A0106B87A41EA0041787AB5
:1018500041EA0020397A40EA010949462046FFF76B
:101860003EFF0546032D01D101209DE70DB10D205E
:101870009AE73F20015D94F8400041EA0020B0F56E
:10188000007F01D00D208FE74A20015D94F84B00C6
:1018900041EA002ABAF1000F0ED194F85B0001066C
:1018A00094F85A0041EA004194F8590041EA0020B6
:1018B00094F8581040EA010AC4F81CA04420065DC0
:1018C000E670012E03D0022E01D00D206CE70AFB3A
:1018D00006FA4120005D0646A07016B1701E304029
:1018E00008B10D2060E74520015D94F8460041EA0B
:1018F00000202081207A00F00F0008B10D2053E76E
:101900004720015D94F8480041EA002006900698BF
:10191000E0B994F85700010694F8560041EA0041F6
:1019200094F8550041EA00200CE00000222A2B2CFC
:101930003A3B3C3D3E3F5B5D7C7F000046415400AE
:101940008401002094F85410084306904220015D61
:1019500094F8430041EA00200290029808B90D2053
:1019600022E702985044218900EB11100590DDE92F
:101970000501814201D20D2016E7DDE90510401A6C
:10198000A178B0FBF1F00490049808B90D200BE7A2
:10199000012540F6F6710498884200D302254FF6DF
:1019A000F6710498884200D303250498801CA06136
:1019B000C4F8209002984844606205984844E06268
:1019C000032D16D1208908B10D20EDE694F86300AF
:1019D000010694F8620041EA004194F8610041EA8E
:1019E000002094F860100843A062A0698000039072
:1019F00014E0208908B90D20D6E6606A5044A06240
:101A0000022D02D1A069400007E0207E00F0010015
:101A1000A16901EB410100EB51000390E1690398DA
:101A200000F2FF10B1EB502F01D20D20BCE64FF0B9
:101A3000FF3020610020E060032D5CD1607194F8DC
:101A4000641094F8650041EA0020484460616078C1
:101A5000012304F13401626901F0D7F9F0BB94F875
:101A6000321294F8330241EA00204AF655218842A6
:101A700041D13720005D01063620005D41EA00417A
:101A80003520005D41EA002094F834100843FE49F7
:101A9000884230D194F81B02010694F81A0241EAF8
:101AA000004194F8190241EA002094F81812084302
:101AB000F64988421FD194F82302010694F82202C5
:101AC00041EA004194F8210241EA002094F82012F2
:101AD0000843E06094F81F02010600E00BE094F870
:101AE0001E0241EA004194F81D0241EA002094F8E8
:101AF0001C12084320612570E5480088401C80B214
:101B0000E3490880E08000202063207100BF4BE69D
:101B100070B505462C464CB1206838B12068007875
:101B200020B12068C088A188884201D0092070BDFA
:101B30002168487801F062F900F0010008B1032043
:101B4000F5E70020F3E70246012A01DB0B2070478E
:101B5000D04850F822300BB10020187009B1002095
:101B60000870CC4840F822100020F0E72DE9F74338
:101B70008AB0054616461DB909200DB0BDE8F083B0
:101B80000020286006F01F0626F0010203A90BA81A
:101B9000FFF7EAFD0746002F7ED1CDF824D003A839
:101BA0000B99FFF753FD0746089C0FB904B90627A8
:101BB00006F01C00002851D04FB1042F03D103A818
:101BC000FFF71DFC074646F00806089C09E0E07A8E
:101BD00000F0110008B1072703E006F0040000B18F
:101BE0000827002F39D106F00800002835D000F072
:101BF000D5FE804684F80E804FEA1821E1734FEA43
:101C0000184121744FEA186161740020E072207756
:101C100000216177A177E17721460398FFF772FBF6
:101C2000814600212046FFF77DFB012003990871C2
:101C3000B9F1000F11D00398D0F8308049460398CD
:101C4000FFF7C4F9074647B9A9F101000399C86035
:101C500041460398FFF723F807460EE06FB9E07A94
:101C600000F0100008B1042707E006F0020020B1E0
:101C7000E07A00F0010000B1072747B906F008003C
:101C800008B146F020060398006BE8612C621FB98A
:101C9000AE712146039800E015E0FFF733FB2861A1
:101CA000E07F0106A07F41EA0041607F41EA002019
:101CB000217F0843E8600020A860A861039828609D
:101CC0000398C088A880384657E72DE9FF4F83B0B6
:101CD000044615469A46DDF810B00020CAF8000008
:101CE0002046FFF715FF0290029818B1029807B03E
:101CF000BDE8F08FA07900F0800008B10220F6E77F
:101D0000A07900F0010008B90720F0E7D4E902103B
:101D1000401A00900098854200D9009DBFE02089BC
:101D2000C0F3080000287DD120688078401EA1689B
:101D300000EA512000F0FF09B9F1000F1DD1A068A1
:101D400010B92069019004E061692068FFF731F85B
:101D500001900198022805D2A07940F08000A0717E
:101D60000220C4E70198401C28B9A07940F0800007
:101D7000A0710120BBE70198606161692068FFF7ED
:101D80000BF806462EB9A07940F08000A071022021
:101D9000ADE74E444FEA5528B8F1000F2DD009EBBE
:101DA000080021688978884203D920688078A0EBF0
:101DB000090808F0FF03216848783246594601F0C7
:101DC00024F828B1A07940F08000A07101208EE7AE
:101DD000A07900F0400068B1A069801B404509D29D
:101DE000A169891B0BEB41204FF4007204F124011F
:101DF000FEF7F8FE4FEA48273EE0A069B04227D040
:101E0000A07900F04000A0B121684878012304F1D6
:101E10002401A26901F043F838B1A07940F08000B4
:101E2000A07100E015E0012061E7A07920F04000FA
:101E3000A071216848780123324604F1240100F0A2
:101E4000E4FF28B1A07940F08000A07101204EE7A6
:101E5000A6612089C0F30800C0F50077AF4200D921
:101E60002F462089C0F3080204F1240011183A46D5
:101E70005846FEF7B7FE00BFBB44A0683844A060D8
:101E8000DAF80000384407E0525261417272416151
:101E90008801002084010020CAF80000ED1B002DFD
:101EA0007FF43DAF002022E72DE9FF4F83B00446C9
:101EB00015469B46049801900020CBF80000204670
:101EC000FFF726FE0290029818B1029807B0BDE80D
:101ED000F08FA07900F0800008B10220F6E7A07929
:101EE00000F0020008B90720F0E7E0682844E16844
:101EF000884200D20025CDE02089C0F308000028E8
:101F000077D120688078401EA16800EA512000F057
:101F1000FF0ABAF1000F2AD1A06858B9D4F810808E
:101F2000B8F1000F0BD100212068FFF783F880463D
:101F3000206104E061692068FFF77CF88046B8F111
:101F4000000F00D1A9E0B8F1010F05D1A07940F050
:101F50008000A0710220B9E708F1010028B9A0793A
:101F600040F08000A0710120B0E7C4F81480A0798F
:101F700000F0400090B121684878012304F1240169
:101F8000A26900F08CFF28B1A07940F08000A07118
:101F900001209BE7A07920F04000A07161692068D2
:101FA000FEF7FAFE06462EB9A07940F08000A07137
:101FB00002208BE756444FEA5529B9F1000F2FD084
:101FC0000AEB090021688978884203D92068807863
:101FD000A0EB0A0909F0FF0321684878324601990D
:101FE00000F05DFF30B1A07940F08000A0710120C9
:101FF0006CE72CE0A069801B48450ED2A069801BCD
:10200000019A02EB40214FF4007204F12400FEF724
:10201000E9FDA07920F04000A0714FEA49272DE0AA
:10202000A069B04212D0D4E9020188420ED22168E0
:1020300048780123324604F1240100F0E6FE28B17D
:10204000A07940F08000A07101203FE7A6612089BF
:10205000C0F30800C0F50077AF4200D92F462189B0
:10206000C1F3080204F1240150183A460199FEF721
:10207000B9FDA07940F04000A07100BF019838443C
:102080000190A0683844A060DBF800003844CBF829
:102090000000ED1B002D7FF42FAF00BFD4E902013B
:1020A000884201D9A068E060A07940F02000A071CA
:1020B00000200BE72DE9F04104462046FFF728FDFC
:1020C0000746002F4CD1A07900F02000002847D00F
:1020D000A07900F0400078B121684878012304F12C
:1020E0002401A26900F0DBFE10B10120BDE8F081FF
:1020F000A07920F04000A071E1692068FEF7CFFDD3
:102100000746002F2CD1256AE87A40F02000E872BB
:10211000207B2877A089010A6977E068010CA977FC
:10212000E068010EE97728462169FFF7FBF800F027
:1021300035FC0646AE75310AE975310C2976310E4B
:1021400069760020A8740021E974A07920F02000AD
:10215000A0710120216808712068FEF7B9FD0746CB
:102160003846C3E770B504462046FFF7A3FF05468F
:102170000DB900202060284670BD2DE9F0470446C7
:102180000E462046FFF7C4FC8246BAF1000F02D08B
:102190005046BDE8F087A07900F0800008B1022029
:1021A000F7E7E068B04204D2A07900F0020000B97D
:1021B000E668D4F808904FF00008C4F80880002EB4
:1021C00077D0206880784702B9F1000F11D0701ED7
:1021D000B0FBF7F1A9F10100B0FBF7F0814208D3A1
:1021E000A9F10100791E8843A060A068361A6569CC
:1021F00018E02569ADB900212068FEF71BFF0546F0
:10220000012D05D1A07940F08000A0710220C0E727
:10221000681C28B9A07940F08000A0710120B8E7BF
:1022200025616561002D44D029E0A07900F002000D
:1022300038B129462068FEF7FDFE054635B93E4611
:102240001FE029462068FEF7B4FD0546681C28B942
:10225000A07940F08000A07101209AE7012D03D9F8
:1022600020688069A84205D8A07940F08000A0715C
:1022700002208EE76561A0683844A060F61BBE426C
:10228000D3D800BFA0683044A060C6F3080068B18E
:1022900029462068FEF780FD8046B8F1000F06D180
:1022A000A07940F08000A071022072E701E008EB05
:1022B00056282089C0F3080050B3A069404527D0B4
:1022C000A07900F0400090B121684878012304F122
:1022D0002401A26900F0E3FD28B1A07940F080005C
:1022E000A071012055E7A07920F04000A07121687D
:1022F00048780123424604F1240100F086FD28B10C
:10230000A07940F08000A071012042E7C4F8188055
:10231000D4E90201884205D9A068E060A07940F0C4
:102320002000A071504634E773B584B0044614B958
:10233000092006B070BD0022214605A8FFF714FA57
:102340000546266825BB01A8A06120460599FFF730
:102350007DF90546ADB9606958B16069C07A00F091
:10236000100028B130466169FEF7CCFFA06000E0A4
:10237000052535B9F088A08000212046FEF7BFFE74
:102380000546042D00D1052525B10020206001E07F
:10239000002020602846CCE7FEB505460E462846BC
:1023A000FFF7B6FB04460CBB2EB900212846FEF70A
:1023B000A6FE04461AE0C5F818D000212846FEF70C
:1023C000E7FF0446042C02D10020286100246CB9E8
:1023D00031462846FFF7EEF800212846FEF7DDFEDD
:1023E0000446042C02D10020286100242046FEBDB2
:1023F00033B58BB00D46002204A90BA8FFF7B4F942
:1024000004467CB901A80A9004A80B99FFF71EF9AD
:1024100004463CB9099820B1294604A8FFF7CAF838
:1024200000E0062420460DB030BD2DE9F74F82B004
:102430008B46002202A80499FFF796F901900498B0
:102440000468019800286ED1A069801E216981422C
:1024500003D82069CBF8000065E094F800A00026BE
:10246000BAF1010F1CD1022700BF39462046FEF702
:10247000A0FC804608F1010010B9012001900EE097
:10248000B8F1010F02D10220019008E0B8F1000F6D
:1024900000D1761C781C0746A1698842E5D33AE052
:1024A000A769606A00904FF00009002500BFB9F1EC
:1024B000000F0ED10098421C014620460092FEF704
:1024C000EEFB0190019800B124E004F134054FF4D3
:1024D0000079BAF1020F09D12878697840EA012021
:1024E00000B9761CAD1CA9F1020910E0E8780006DD
:1024F000A97840EA0140697840EA01202978084338
:1025000020F0704000B9761C2D1DA9F10409781E39
:102510000700CCD100BF2661BAF1030F01D1012021
:102520006071CBF80060019805B0BDE8F08F70B520
:1025300004462046FFF7ECFA054655B9A07900F0AD
:10254000800008B1022504E0A07900F0020000B983
:102550000725002D36D1D4E9021088422DD9A06874
:10256000E060A07940F02000A071A06838B921692E
:102570002068FEF72BFD0546002020611DE0616903
:102580002068FEF716FC06460025701C00B90125E0
:10259000012E00D1022585B920688069B0420CD98E
:1025A0006FF0704261692068FEF775FC054625B939
:1025B00031462068FEF70AFD05461DB1A07940F0BE
:1025C0008000A071284670BD71B591B001220AA9A2
:1025D00011A8FFF7C9F80446002C47D1CDF840D028
:1025E0000AA81199FFF732F8044600BF002C3DD12C
:1025F0000F9E0EB9062404E0F07A00F0010000B14D
:10260000072431460A98FEF77DFE0546ECB9F07ABC
:1026100000F01000C8B1022D01D2022415E01C22E6
:102620000AA903A8FEF7DEFA0595022103A8FEF722
:1026300066FD04464CB9002103A8FEF7A9FE044636
:1026400004B90724042C00D100247CB90AA8FEF7A1
:10265000F3FE044654B925B129460A98FEF7B6FCA4
:1026600004461CB90A98FEF733FB0446204612B014
:1026700070BD2DE9F1478BB000F090F906460122BC
:1026800004A90BA8FFF770F80546002D7ED101A81C
:102690000A9004A80B99FEF7D9FF054605B908254D
:1026A00000BF042DF2D100210498FEF7C3FC0746B9
:1026B000002507B90725012F00D10225781C00B994
:1026C00001251DB90498FEF7C1FA0546002D5AD11F
:1026D00039460498FEF760FB8146049800F1340403
:1026E0004FF4007200212046FEF789FA0B222021C8
:1026F0002046FEF784FA2E2020701020E072A67586
:10270000310AE175310C2176310E61763946204669
:10271000FEF708FE2022214604F12000FEF762FAAF
:102720002E2084F82100DDF818A0049800780328F2
:1027300004D10498806A504500D1AA46514604F15C
:102740002000FEF7EFFD049890F8028017E004984F
:10275000C0F8309009F1010901200499087104982A
:10276000FEF774FA054605B10CE04FF40072002143
:102770002046FEF744FAA8F1010000F0FF08B8F186
:10278000000FE4D100BF2DB904A800E01DE0FEF762
:1027900036FE054625B139460498FEF717FC14E0CD
:1027A000099C1020E072A675310AE175310C217682
:1027B000310E617639462046FEF7B4FD01200499BA
:1027C00008710498FEF784FA054628460CB0BDE867
:1027D000F087F7B58AB00F461446012203A90AA86C
:1027E000FEF7C2FF0646DEB9CDF824D003A80A9949
:1027F000FEF72CFF064600BF96B9089D0DB90626C8
:102800000EE004F0270407EA0400E97AA143084334
:10281000E8720120039908710398FEF759FA0646F9
:1028200030460DB0F0BD73B58AB00D46012203A944
:102830000AA8FEF799FF0646EEB9CDF824D003A802
:102840000A99FEF703FF064600BFA6B9089C0CB91B
:10285000062610E0A879A075E8880112E1752879AC
:102860002076A888011261760120039908710398E7
:10287000FEF72EFA064630460CB070BD2DE9F34146
:1028800098B00F46012211A918A8FEF76DFF044663
:10289000002C79D111980A9001A8179011A81899C5
:1028A000FEF7D4FE044600BF002C6DD1169808B97F
:1028B000042469E0169800F10B01152204A8FEF724
:1028C00091F91C2211A90AA8FEF78CF939460AA829
:1028D000FEF7BCFE044604B90824042C54D10AA80F
:1028E000FEF78DFD0446002C4ED10F9D13220DF1F5
:1028F000120105F10D00FEF775F99DF8100040F08A
:102900002000E8720120119908710C9913988842EF
:1029100030D0E87A00F0100060B329461198FEF735
:10292000F1FC804641461198FEF736FA06460EB98C
:1029300002241FE031461198FEF7B1F904461198C0
:1029400000F15405B4B968782E2813D11198007895
:10295000032806D111990C98896A884201D1002078
:1029600000E00C98064631462846FEF7DBFC0120C5
:102970001199087144B911A8FEF75EFD04461CB90F
:102980001198FEF7A5F9044620461AB0BDE8F0817B
:1029900000BF0100A0F10100FBD170470CB5BDF8EC
:1029A0000000A0F2BC7040069DF8021040EA4150C1
:1029B0009DF8031040EA01409DF8041040EAC12050
:1029C0009DF8051040EA41109DF8061040EA5100BC
:1029D0000CBD08B50121042001F094FF10208DF8F2
:1029E000030003208DF80200B020ADF80000694616
:1029F000FA4801F0CBFC48208DF8030003208DF845
:102A000002004020ADF800006946F44801F0BEFC29
:102A10001021F24801F067FD0520FFF7B9FF08BD5E
:102A200070B5044600250520FFF7B2FF2021EB48D2
:102A300001F059FD002629E004F0800020B180213A
:102A4000E64801F050FD03E08021E44801F04DFD2F
:102A50006006040E0520FFF79BFF2021DF4801F0F0
:102A600044FD0520FFF794FF6806050E4021DB4872
:102A700001F01FFD08B1681CC5B22021D74801F044
:102A800032FD0520FFF784FF701CC6B2082ED3DB91
:102A9000284670BD10B5FF20FFF7C2FF10BD70B50E
:102AA000054642F2107005FB00F6FFF7F3FF00BF8A
:102AB000FFF7F0FF0446FF2C03D03000A6F101061B
:102AC000F6D1FF2C01D1012070BD0020FCE770B5CC
:102AD00004460D461021C14801F007FD0520FFF70F
:102AE00057FF00BF2078FFF79BFF641C681E05009E
:102AF000F8D12078FFF794FF1021B84801F0F3FCDB
:102B00000520FFF745FF70BD2DE9F04104460E4654
:102B10001021B24801F0E9FC0520FFF739FFB04F62
:102B200000BFFFF7B7FF0546FF2D03D13800A7F11F
:102B30000107F6D1FE2D02D00020BDE8F08100BFD4
:102B4000FFF7A8FF04F8010BFFF7A4FF04F8010B3F
:102B5000B01E0600F4D1FFF79DFFFFF79BFF102189
:102B60009E4801F0C0FC0520FFF712FF0120E4E7BA
:102B70002DE9F04104460D461021984801F0B5FCBE
:102B80000520FFF705FF0520FFF789FF48B9102151
:102B9000924801F0A8FC0520FFF7FAFE0020BDE8EE
:102BA000F081E8B2FFF73CFFFD2D1BD0002700BFEE
:102BB00014F8010BFFF734FF14F8010BFFF730FF97
:102BC000781EC0B20700F3D1FFF764FFFFF762FF82
:102BD000FF20FFF725FF064606F01F00052801D05D
:102BE0000020DCE70120DAE7FEB505460E4610219D
:102BF0007A4801F07AFC0520FFF7CAFE0520FFF7AE
:102C00004EFF40B91021754801F06DFC0520FFF71B
:102C1000BFFEFF20FEBD45F04000FFF701FF300E74
:102C2000FFF7FEFEC6F30740FFF7FAFEC6F30720E4
:102C3000FFF7F6FEF0B2FFF7F3FEFF2405B9952487
:102C4000082D00D187242046FFF7EAFE0C2D01D184
:102C5000FFF720FF0A2400BFFFF71CFF0DF8040058
:102C60001DF8040000F0800018B1601EC0B204001E
:102C7000F2D11021594801F036FC0520FFF788FEFB
:102C80001DF80400C6E7F8B507460FB10120F8BDEE
:102C9000FFF79FFE5348007800F0020010B1514842
:102CA0000078F4E710214D4801F01DFC0520FFF7E6
:102CB0006FFE002404E0FF20FFF7B2FE601CC4B2E8
:102CC0000B2CF8DB002600210846FFF78DFF0128BA
:102CD00073D14FF47A70444908604FF4D5710820DD
:102CE000FFF782FF012849D110213C4801F0FDFB8C
:102CF0000520FFF74DFE002405E0FFF7CBFE0DF8A1
:102D00000400601CC4B2042CF7DB1021334801F02E
:102D1000EAFB0520FFF73CFE9DF8020001284CD19C
:102D20009DF80300AA2848D100BF00213720FFF7F3
:102D30005BFF012806DC4FF080412920FFF754FF9C
:102D40000028F2D128480068002836D000213A2017
:102D5000FFF74AFF88B9002405E0FFF79BFE0DF856
:102D60000400601CC4B2042CF7DB9DF8000010B115
:102D700000BF0C2000E0042006461EE000212920B0
:102D8000FFF732FF012802DC0226292501E0012697
:102D9000012500BF1448006828B100212846FFF72C
:102DA00023FF0028F6D11048006828B14FF40071C5
:102DB0001020FFF719FF00B100260C480670102103
:102DC000064801F090FB0520FFF7E2FD86B10548BB
:102DD000007820F00100034908700CE00008014071
:102DE000002D31018C01002090010020980100206D
:102DF0000120FD490870FC48007848E7014609B108
:102E000001207047F8480078FBE72DE9F0410746BC
:102E10000D4616461C4607B914B90420BDE8F081DA
:102E2000F148007800F0010008B10320F6E7EF4810
:102E3000007800F0080000B97602012C0BD1314671
:102E40001120FFF7D1FEF0B961022846FFF75CFEC2
:102E5000C8B1002417E031461220FFF7C5FE90B933
:102E600000BF4FF400712846FFF74EFE00B905E0A1
:102E700005F50075601EC0B20400F2D100BF00214C
:102E80000C20FFF7B1FE1021D94801F02CFB0520E2
:102E9000FFF77EFD0CB10120C0E70020BEE72DE961
:102EA000F04107460D4616461C4607B914B90420E2
:102EB000BDE8F081CC48007800F0010008B10320A3
:102EC000F6E7C948007800F0040008B10220EFE7F7
:102ED000C648007800F0080000B97602012C0BD13A
:102EE00031461820FFF780FE40BBFE212846FFF741
:102EF0003FFE18B3002421E0BC48007800F0060033
:102F000018B121469720FFF76FFE31461920FFF7D1
:102F10006BFE98B900BFFC212846FFF729FE00B9D7
:102F200005E005F50075601EC0B20400F3D100BFD6
:102F3000FD210020FFF71CFE00B901241021AC4840
:102F400001F0D1FA0520FFF723FD0CB10120AFE716
:102F50000020ADE72DE9F04F85B082468B46144640
:102F6000BAF1000F03D0042005B0BDE8F08F9E48F1
:102F7000007800F0010008B10320F5E7012004907B
:102F8000BBF1000F09D0BBF1010F1BD0BBF1030F48
:102F90005FD0BBF1040F71D1B5E01021944801F06E
:102FA000A4FA0520FFF7F4FC0520FFF778FD40B1F7
:102FB00010218F4801F097FA0520FFF7E9FC002067
:102FC0000490E0E000210920FFF70EFEF0BB102185
:102FD0006846FFF799FDC8B39DF800000121B1EBE9
:102FE000A01F0FD19DF809009DF8081000EB0120EB
:102FF0009DF8071001F03F0100EB0140461CB002B4
:10300000206021E09DF8050000F00F009DF80A10F7
:1030100000EBD1109DF8091001F0030100EB410015
:10302000851C9DF8080080119DF8071000EB8100B9
:103030009DF8061001F0030100EB8120461CA5F16C
:10304000090006FA00F02060002000E000E0049093
:1030500099E06648007800F0040000B300218D205C
:10306000FFF7C2FD00284DD1FF20FFF7D9FC10214A
:103070006846FFF749FD90B3302505E080E0FF206A
:10308000FFF7CEFC681EC5B2002DF8D19DF80A00EE
:1030900001111020884020600020049032E00021BF
:1030A0000920FFF7A1FDD0B910216846FFF72CFDDC
:1030B000A8B14E48007800F0020088B19DF80A00DF
:1030C0008006400E9DF80B1000EBD110401C9DF8BF
:1030D0000D100122C2EBA1118840206010E011E028
:1030E0009DF80B008007C00E9DF80B1000EB5110EF
:1030F000401C9DF80A10C1F38401491C484320601C
:10310000002004903FE03948007800F0060000B944
:1031100039E06A460B215046FFF71CFF00B132E050
:103120009DF80000801128B99DF80A0000F04000C9
:1031300000B928E027463C46D7F80080D7F804902D
:103140002A48007800F0080018B94FEA48284FEAEA
:10315000492941462020FFF747FD80B949462120F3
:10316000FFF742FD58B900212620FFF73DFD30B999
:1031700040F6B830FFF793FC08B10020049002E05D
:103180000420049000BF00BF1021194801F0ABF9E2
:103190000520FFF7FDFB0498E6E61649096888B2AA
:1031A00020B1411E89B20846124A116012490968CD
:1031B00088B220B1411E89B208460F4A116070479B
:1031C00070B505460E4650210C4801F01BFD2946FE
:1031D0000A4801F00BFDAEB1012208490848FEF78C
:1031E000C5FC044623E000008C010020980100206B
:1031F0000008014090010020940100207009002087
:10320000FC060020042239493948FEF7AFFC044689
:10321000082C06D1022235493548FEF7A7FC0446A2
:1032200005E0022231493248FEF7A0FC04460CB109
:10323000204670BD0020FCE710B50020FFF723FDFD
:103240002C490020FEF77FFC04460CB9012000E069
:10325000002008B9204610BD27A12848FFF764F8D0
:1032600004462046F7E77CB504460D460020009052
:103270001F48C168FEF781FF01909DF8040010B15E
:103280009DF804007CBD6B462A4621461848FEF78F
:103290000BFE01909DF80400F4E710B51448FEF70A
:1032A00061FF04460CB1204610BD0020FCE7F8B5D4
:1032B00005460E4617460E48C068A84201D813209E
:1032C000F8BD29460A48FEF758FF04460CB12046CF
:1032D000F6E76B463A4631460548FEF7F6FC0446EB
:1032E0000CB12046ECE70020EAE70000700900205E
:1032F000FC060020940400202E2F0000C8060020A9
:1033000010B500F093FC0020FD4908706FF07E447A
:10331000FC49087000BF2000A4F10104FBD14FF666
:10332000FF740421F8A000F0BAFD04E0F54800782D
:10333000032800D103E02000A4F10104F6D100BF6E
:103340004FF6FF740B21F1A000F0A9FD04E0ED4859
:103350000078032800D103E02000A4F10104F6D195
:1033600000BFE8480078032805D04FF40051EA4830
:1033700001F0B9F810BD0420E24908700621E7A069
:1033800000F08DFD04E0DF480078032800D103E061
:103390002000A4F10104F6D100BF0621E1A000F055
:1033A0007EFD04E0D7480078032800D103E0200028
:1033B000A4F10104F6D100BF00BFDBE730B504463D
:1033C000092A43D2DFE802F005101621422B3136DC
:1033D0003C003E2C02D10520CA4D28700D2C01D195
:1033E000012030BD0020FCE70A2C01D10220F8E7C3
:1033F0000020F6E70D2C01D10320F2E718780C54D9
:103400001878401C18700220EBE70D2C01D1032026
:10341000E7E70A2C01D10420E3E70020E1E70D2CC7
:1034200001D10620DDE70020DBE70A2C01D10720CF
:10343000D7E700BF3E2C01D10820D2E70020D0E71B
:10344000202C01D10920CCE70020CAE70020C8E7E2
:103450000146487830380A78303A02EB820200EBB5
:103460004200C0B2704708B5B04800784F2805D177
:10347000AE4840784B2801D1032008BDAB48007806
:10348000452811D1A948407852280DD1A748807805
:10349000522809D1A548C0784F2805D1A348007902
:1034A000522801D10220E8E7A04800782B285FD1FC
:1034B0009E48407843285BD19C488078432857D168
:1034C0009A48C0784C2853D1984800794B284FD15E
:1034D0009648007A8DF800009448407A8DF80100F3
:1034E0006846FFF7B5FF924908709048C07A8DF89A
:1034F00000008E48007B8DF801006846FFF7A8FFAA
:103500008B4948708948807B8DF800008748C07BD4
:103510008DF801006846FFF79BFF85498870834856
:10352000407C8DF800008148807C8DF80100684661
:10353000FFF78EFF7E49C8707C48007D8DF8000043
:103540007A48407D8DF801006846FFF781FF784991
:1035500008717648C07D8DF800007448007E8DF8B3
:1035600001006846FFF774FF71494871062084E73F
:103570006E4800783E2805D16C484078202801D15B
:1035800005207AE7042078E710B50446694B5C48CB
:10359000027866492046FFF711FF5949087008462E
:1035A0000078022802D00020624908705448007850
:1035B000042806D1FFF757FF5249087000205049F0
:1035C000087010BD2DE9F04105460F469046052DC7
:1035D00057D2DFE805F003080D12170003214AA0B7
:1035E00000F05DFC4DE005214CA000F058FC48E0E7
:1035F000052151A000F053FC43E00B2150A000F046
:103600004EFC3EE00B214EA000F049FC4FF6FF7649
:1036100004E03C480078032800D103E03000A6F124
:103620000106F6D100BF092148A000F038FC222095
:1036300000F044FB0D2148A000F031FC222000F0F6
:103640003DFB0A2000F03AFB4FF6FF7604E02D48E0
:103650000078052800D103E03000A6F10106F6D17C
:1036600000BF002404E0385D00F028FB601CC4B2F9
:103670004445F8DB1A2000F021FB0D2000F01EFB72
:1036800000BF00BFBDE8F08110B50A2136A000F0F0
:1036900006FC384C04E01B480078032800D103E006
:1036A0002000A4F10104F6D100BF324C04E015481B
:1036B0000078062800D103E02000A4F10104F6D12F
:1036C00000BF10BD1A4800791949C978C1EB011132
:1036D00000EB810070472DE9F04305461F460020AE
:1036E000002459E255F824C00CF0404CBCF1000F06
:1036F0007DD020B94FF0500C02F800C03CE057E0FC
:103700009A0100209901002041540A0041542B43A2
:103710004C54533D310A00000010014041544530E3
:103720000A000000415426570A000000C00900208A
:10373000710100209B010020415445310A00000026
:1037400041542B434D47463D310A000041542B4321
:103750004D47533D000000002B38343930333134AD
:10376000363737390000000041542B43434C4B3F60
:103770000A000000FFFF0F0000F1010C0CF0FF0039
:1037800001F1300C02F800C000F1010C0CF0FF0058
:1037900001F1310C02F800C000F1010C0CF0FF0047
:1037A0004FF0200C02F800C000F1010C0CF0FF00FB
:1037B00055F824C0CCF38F3335F824C0CCF30D0674
:1037C0004FF03C0C93FBFCFC4FF00A089CFBF8FC10
:1037D0000CF1300C02F800C000F1010C0CF0FF00FD
:1037E0004FF03C0C93FBFCFC9CFBF8F900E09CE0E8
:1037F00008FB19CC0CF1300C02F800C000F1010CF0
:103800000CF0FF004FF0680C02F800C000F1010C52
:103810000CF0FF004FF03C0C93FBFCF80CFB183C49
:103820004FF00A089CFBF8FC0CF1300C02F800C0C9
:1038300000F1010C0CF0FF004FF03C0C93FBFCF886
:103840000CFB183C4FF00A089CFBF8F908FB19CC5C
:103850000CF1300C02F800C000F1010C0CF0FF007C
:103860004FF02D0C02F800C000F1010C0CF0FF002D
:103870004FF03E0C02F800C000F1010C0CF0FF000C
:103880004FF03C0C96FBFCFC9CFBF8FC0CF1300C64
:1038900002F800C000F1010C0CF0FF004FF03C0CEE
:1038A00096FBFCFC9CFBF8F908FB19CC0CF1300CE6
:1038B00002F800C000F1010C0CF0FF004FF0680CA2
:1038C00002F800C000F1010C0CF0FF004FF03C0CBE
:1038D00096FBFCF80CFB186C4FF00A089CFBF8FCFC
:1038E0000CF1300C02F800C000F1010C0CF0FF00EC
:1038F0004FF03C0C96FBFCF80CFB186C4FF00A08E0
:103900009CFBF8F908FB19CC0CF1300C02F800C054
:1039100000F1010C0CF0FF004FF02E0C02F800C07B
:1039200000F1010C0CF0FF0032E155F824C00CF05E
:10393000004CBCF1000F7DD0F8B94FF0500C02F8EC
:1039400000C000F1010C0CF0FF0001F1300C02F896
:1039500000C000F1010C0CF0FF0001F1310C02F885
:1039600000C000F1010C0CF0FF004FF0200C02F839
:1039700000C000F1010C0CF0FF0055F824C0CCF39E
:103980008F334FF04F0C02F800C000F1010C0CF027
:10399000FF004FF04E0C02F800C000F1010C0CF0DB
:1039A000FF004FF03C0C93FBFCFC4FF00A089CFB23
:1039B000F8FC0CF1300C02F800C000F1010C0CF026
:1039C000FF004FF03C0C93FBFCFC9CFBF8F908FB60
:1039D00019CC0CF1300C02F800C000F1010C0CF015
:1039E000FF004FF03A0C02F800C000F1010C0CF09F
:1039F000FF004FF03C0C93FBFCF80CFB183C4FF025
:103A00000A089CFBF8FC0CF1300C02F800C000F135
:103A1000010C0CF0FF004FF03C0C93FBFCF80CFB8E
:103A2000183C4FF00A089CFBF8F908FB19CC0CF184
:103A3000300C00E00EE002F800C000F1010C0CF0C8
:103A4000FF004FF02E0C02F800C000F1010C0CF04A
:103A5000FF009DE055F824C00CF0804CBCF1000F35
:103A60007DD0F8B94FF0500C02F800C000F1010C05
:103A70000CF0FF0001F1300C02F800C000F1010C65
:103A80000CF0FF0001F1310C02F800C000F1010C54
:103A90000CF0FF004FF0200C02F800C000F1010C08
:103AA0000CF0FF0035F824C0CCF30D064FF04F0C9E
:103AB00002F800C000F1010C0CF0FF004FF0460CC2
:103AC00002F800C000F1010C0CF0FF004FF0460CB2
:103AD00002F800C000F1010C0CF0FF004FF03C0CAC
:103AE00096FBFCFC4FF00A089CFBF8FC0CF1300C38
:103AF00002F800C000F1010C0CF0FF004FF03C0C8C
:103B000096FBFCFC9CFBF8F908FB19CC0CF1300C83
:103B100002F800C000F1010C0CF0FF004FF02E0C79
:103B200002F800C000F1010C0CF0FF004FF03C0C5B
:103B300093FBFCF80CFB183C4FF00A089CFBF8FCCC
:103B40000CF1300C02F800C000F1010C0CF0FF0089
:103B50004FF03C0C93FBFCF80CFB183C00E016E02B
:103B60004FF00A089CFBF8F908FB19CC0CF1300C5B
:103B700002F800C000F1010C0CF0FF004FF02E0C19
:103B800002F800C000F1010C0CF0FF0000E006E0BC
:103B900004F1010C0CF0FF04142CFFF6A3AD00BFE0
:103BA0003870BDE8F0832DE9F04107468846154698
:103BB0001E4630782844E12821DD2C4607E0601BB2
:103BC000385C3178214408F80100601CC4B2E12C53
:103BD000F5DB327841460420FFF7F4FC30782844C6
:103BE000E1383070002405E0281B385C08F8040038
:103BF000601CC4B23078281AA042F5DC0BE03078A3
:103C000028443070002404E0385D08F80400601C8B
:103C1000C4B2AC42F8DBBDE8F081000001B500BFE2
:103C20000098411E00910028FAD108BD1FB501215E
:103C3000042000F067FE10208DF80B004001ADF865
:103C4000080003208DF80A0002A9AB4800F09EFB93
:103C500048208DF80B004FF48060ADF8080002A9F1
:103C6000A54800F093FB4FF40071A34800F03BFC23
:103C70000A21002000F0A0FC4FF48060009000209A
:103C80008DF804000C208DF8050001208DF8060049
:103C9000684600F09BFA28208DF80C0000208DF873
:103CA0000D008DF80E0001208DF80F0003A800F024
:103CB00016FA41F64C50FFF7B1FF1FBD10B5044690
:103CC0004FF400718C4800F00EFC4FF44870FFF781
:103CD000A5FF44F62060FFF7A1FF4FF4007186486E
:103CE00000F003FC4FF44870FFF798FF04F0010068
:103CF00048B14FF40071804800F0F5FB4FF4487074
:103D0000FFF78CFF08E04FF400717B4800F0EDFBFB
:103D10004FF44870FFF782FF04F0020048B14FF4FF
:103D20000071754800F0DFFB4FF44870FFF776FF35
:103D300008E04FF40071704800F0D7FB4FF4487072
:103D4000FFF76CFF04F0040048B14FF400716A48BB
:103D500000F0C9FB4FF44870FFF760FF08E04FF434
:103D60000071654800F0C1FB4FF44870FFF756FF43
:103D700004F0080048B14FF400715F4800F0B3FB55
:103D80004FF44870FFF74AFF08E04FF400715A48BB
:103D900000F0ABFB4FF44870FFF740FF04F0100059
:103DA00048B14FF40071544800F09DFB4FF4487047
:103DB000FFF734FF08E04FF400714F4800F095FB27
:103DC0004FF44870FFF72AFF04F0200048B14FF489
:103DD0000071494800F087FB4FF44870FFF71EFF61
:103DE00008E04FF40071444800F07FFB4FF4487046
:103DF000FFF714FF04F0400048B14FF400713E4853
:103E000000F071FB4FF44870FFF708FF08E04FF433
:103E10000071394800F069FB4FF44870FFF7FEFE6F
:103E200004F0800048B14FF40071334800F05BFBB0
:103E30004FF44870FFF7F2FE08E04FF400712E488F
:103E400000F053FB4FF44870FFF7E8FE4FF40071A9
:103E5000294800F048FB4FF44870FFF7DFFE10BD23
:103E600070B54FF44870FFF7D9FE002413E04FF40B
:103E70004870FFF7D3FE4FF480611F4800F019FB34
:103E800020B10120A0402843C5B202E00120A0409B
:103E90008543601CC4B2082CE9DB284670BD2DE9BF
:103EA000F04105460E46002700241FE017B1012F00
:103EB00019D108E0285D5C2801D1012713E0285DB5
:103EC000FFF7FCFE0FE0285D6E2804D10A20FFF703
:103ED000F5FE002707E05C20FFF7F0FE285DFFF706
:103EE000EDFE002700BF00BF601CC4B2701EA042E0
:103EF000DCDCBDE8F08100000008014010B5FFF7F0
:103F00009BF900216EA0FFF75BF910BD70B5044668
:103F10000D46FFF7F3FF6C4880780A2190FBF1F023
:103F20006A49085C6A490870674880780A2190FBF2
:103F3000F1F201FB12006549085C654948702F20C9
:103F40008870614840780A2190FBF1F05F49085C75
:103F50005F49C8705C4840780A2190FBF1F201FB90
:103F600012005A49085C5A4908712F204871564876
:103F700000780A2190FBF1F05449085C544988719B
:103F8000514800780A2190FBF1F201FB12004F49E1
:103F9000085C4F49C87108214D48FFF764F920209B
:103FA0004B4908704848C0780A2190FBF1F0474916
:103FB000085C474948704448C0780A2190FBF1F2F8
:103FC00001FB12004149085C414988703A20C870E1
:103FD0003D4800790A2190FBF1F03C49085C3C49DE
:103FE0000871394800790A2190FBF1F201FB1200B7
:103FF0003649085C364948713A20887106213448B0
:10400000FFF731F95020324908704F204870522094
:1040100088705420C870202008710A2094FBF0F0AA
:104020002A49085C2A4948710A2094FBF0F100FBF8
:1040300011402649085C264988712020C871082152
:104040002348FFF710F96DB14F20214908704E2029
:1040500048700D2088700A20C87004211C48FFF7A2
:1040600002F90DE04F201A49087046204870887008
:104070000D20C8700A20087105211548FFF7F3F8D4
:10408000FFF70BF970BD10B561B14FF0004443F874
:10409000204022F4004253F8204044EA823443F89E
:1040A00020400CE053F8204044F0804443F8204086
:1040B00022F4004253F82040144343F8204010BD3E
:1040C0006C6F672E7478740071010020A4010020C9
:1040D0009C01002031490143314A1160704770B59D
:1040E000002100230F22C47804B32D4C246804F46B
:1040F000E064C4F5E064210AC1F10403CA404478D5
:1041000004FA03F18478144021430901254C067810
:10411000A155047804F01F050124AC4005786D1109
:10412000AD0005F1E025C5F8004109E0047804F090
:104130001F050124AC401C4D0678761145F8264039
:1041400070BD1A4A0A400243154B1B1F1A60704784
:1041500039B1134A121D12680243114B1B1D1A601C
:1041600006E00F4A121D126882430D4B1B1D1A6098
:104170007047042808D14FF0E021096941F004019B
:104180004FF0E022116107E04FF0E021096921F0D2
:1041900004014FF0E0221161704700000000FA05B1
:1041A0000CED00E000E400E080E100E080FFFF1F94
:1041B000002044490860091D0860091D0860091DA8
:1041C000086041483F4914310860704700213D496B
:1041D0008279002A3AD00A46126803689A430B464D
:1041E0001A600A1D126803689A430B1D1A6002794F
:1041F00011440A6803681A430A60324A0832126896
:1042000003689A432F4B08331A601A1D126803681B
:104210009A432C4B0C331A604279102A0ED11A1F84
:10422000126803681A43274B08331A601A1D126874
:1042300003681A43234B0C331A600DE0214942797D
:1042400011440A6803681A430A6005E002791144C0
:104250000A6803689A430A6070470021016001718F
:104260000C21417100218171704716491031096894
:104270000143144A10321160704701460020114A70
:10428000143212680A400AB1012000E00020704791
:104290000C49143108607047014600200022094B88
:1042A0001B6803EA0102074B14331B680B4013B170
:1042B0000AB1012000E00020704702491431086073
:1042C0007047000000040140FFFF0F0010B50446D6
:1042D000CC48844208D10121042000F02DFB0021AC
:1042E000042000F029FB46E0C748844208D10121A0
:1042F000082000F021FB0021082000F01DFB3AE01F
:10430000C248844208D10121102000F015FB002191
:10431000102000F011FB2EE0BD48844208D101219D
:10432000202000F009FB0021202000F005FB22E006
:10433000B848844208D10121402000F0FDFA002154
:10434000402000F0F9FA16E0B348844208D1012178
:10435000802000F0F1FA0021802000F0EDFA0AE060
:10436000AE48844207D10121801500F0E5FA002112
:10437000A01500F0E1FA10BD10B50121084600F0CB
:10438000DBFA0021012000F0D7FA10BD2DE9F04141
:10439000024600250026002000230024002791F873
:1043A00003C00CF00F0591F803C00CF0100CBCF129
:1043B000000F03D091F802C04CEA050591F800C047
:1043C000BCF1000F31D0146800202BE04FF0010C3D
:1043D0000CFA00F3B1F800C00CEA03069E4220D1AB
:1043E00083004FF00F0C0CFA03F7BC4305FA03FCF3
:1043F0004CEA040491F803C0BCF1280F06D14FF039
:10440000010C0CFA00FCC2F814C00AE091F803C0D9
:10441000BCF1480F05D14FF0010C0CFA00FCC2F8BA
:1044200010C0401C0828D1D31460B1F800C0BCF102
:10443000FF0F34DD546800202EE000F1080C4FF02F
:10444000010808FA0CF3B1F800C00CEA03069E421A
:1044500021D183004FF00F0C0CFA03F7BC4305FA8F
:1044600003FC4CEA040491F803C0BCF1280F05D109
:1044700000F1080C08FA0CF8C2F8148091F803C097
:10448000BCF1480F07D100F1080C4FF0010808FA01
:104490000CF8C2F81080401C0828CED35460BDE848
:1044A000F0814FF6FF710180022181700421C170FB
:1044B00070470246002093680B400BB1012000E0DA
:1044C000002070470146886880B27047024600208D
:1044D000D3680B400BB1012000E00020704701467B
:1044E000C86880B2704701617047416170470AB186
:1044F000016100E041617047C16070474FF4803254
:104500000A438261816182618269826970470246E1
:104510000020434B18684FF68073184040EA0210A1
:1045200008433F4B186070473E49C8617047F0B57B
:104530000A46002300240021002500F00046B6F1C1
:10454000004F02D1364EF16901E0354E7168C0F37B
:10455000034583B200F44016B6F5401F08D121F0A0
:1045600070612F4E766826F070662D4F7E6012E0E7
:1045700000F48016B6F5801F06D1032606FA05F46E
:10458000A14341F0706106E0460D360103FA06F6DC
:10459000B14341F0706122B1460D360103FA06F6CF
:1045A000314300F00046B6F1004F02D11C4EF161DC
:1045B00001E01B4E7160F0BD30B500228B071C0F6F
:1045C0000F2303FA04F2164B08338C1053F82430EF
:1045D0009343134C08348D1044F8253023468C1037
:1045E00053F824308C07240F00FA04F423430C4CB6
:1045F00008348D1044F8253030BD0A49DC3108609C
:104600007047000000080140000C0140001001400C
:104610000014014000180140001C0140002001402E
:104620000000014000002042DF48006840F0010027
:10463000DD49086008464068DC490840DA494860BE
:1046400008460068DA490840D7490860084600680B
:1046500020F4802008600846406820F4FE0048608E
:104660004FF41F0088607047CF49096821F48031FA
:10467000CD4A11601146096821F480211160B0F51E
:10468000803F03D0B0F5802F0ED106E0C6490968FF
:1046900041F48031C44A116007E0C349096841F41C
:1046A000A021C14A116000E000BF00BF704710B5F3
:1046B00001460022002300204A11012A02D1BA4CEF
:1046C000236806E0022A02D1B74C236A01E0B64C07
:1046D000636A01F01F02012494401C400CB10120C8
:1046E00000E0002010BD38B5002000900024002517
:1046F00000BF3120FFF7DBFF05460098401C00900B
:104700000098B0F5A06F01D0002DF2D03120FFF756
:10471000CEFF08B1012400E00024204638BD014648
:104720000020A14A106820F0F80040EAC1001060A3
:104730007047A04908607047024600209A4B5868AD
:1047400020F47C1042EA01031843974B58607047ED
:1047500098490866704701460020934A506820F047
:1047600003000843506070478F48406800F00C0019
:104770007047014600208C4A506820F0F000084342
:104780005060704701460020874A506820F4E0607E
:1047900008435060704701460020834A506820F467
:1047A000605040EAC1005060704729B17E4A527A99
:1047B00002437D4B5A7204E07B4A527A82437A4B21
:1047C0005A7270477B49D831086070470146002013
:1047D000754A506820F440400843506070470021FB
:1047E000714A20321170704A82F82010012802D0DC
:1047F00004280AD104E001216B4A2032117005E03F
:104800000521694A2032117000E000BF00BF7047E7
:104810006949086070476449096A0143624A116244
:104820007047654944390860704730B5002100225F
:10483000002400235C4D6D6805F00C0121B10429B2
:1048400005D0082923D105E05C4D056022E05B4DD1
:1048500005601FE0544D6D6805F47012524D6D688F
:1048600005F48034022505EB92421CB9544D5543A2
:1048700005600BE04C4D6D6805F400351DB1504DE1
:104880005543056002E04D4D5543056002E04B4D38
:10489000056000BF00BF444D6D6805F0F0010909D7
:1048A000484D6B5C0568DD4045603F4D6D6805F423
:1048B000E061090A434D6B5C4568DD4085603A4D17
:1048C0006D6805F46051C90A3E4D6B5C4568DD407A
:1048D000C560354D6D6805F44041890B3A4D6B5C00
:1048E000C568B5FBF3F5056130BD29B12E4A5269A3
:1048F00002432D4B5A6104E02B4A526982432A4BF2
:104900005A61704729B1284A92690243264B9A613D
:1049100004E0254A92698243234B9A61704729B18A
:10492000214AD2690243204BDA6104E01E4AD2696F
:1049300082431D4BDA61704729B11B4AD26802439A
:10494000194BDA6004E0184AD2688243164BDA60E9
:10495000704729B1144A12690243134B1A6104E0EB
:10496000114A12698243104B1A617047124940394B
:10497000086070470F49C86470470B49C871704799
:104980000948406A40F08070074948627047014614
:104990000020054A92680A400AB1012000E0002088
:1049A0007047014988727047001002400000FFF80C
:1049B000FFFFF6FE000042428004424200127A00ED
:1049C00000093D00AE010020BE01002009488047DB
:1049D00009480047FEE7FEE7FEE7FEE7FEE7FEE7E1
:1049E000FEE7FEE7FEE7FEE704480549054A064BF9
:1049F00070470000EB4A0008ED000008980A00200C
:104A000098100020980C0020980C00200CB5002075
:104A1000019000906C48006840F480306A4908605A
:104A200000BF6948006800F4003000900198401C05
:104A30000190009818B90198B0F5A06FF1D16248C3
:104A4000006800F4003010B10120009001E0002067
:104A500000900098012843D15C48006840F01000A5
:104A60005A4908600846006820F0030008600846BC
:104A7000006840F0020008605348406852494860AE
:104A80000846406848600846406840F480604860D6
:104A90000846406820F47C1048600846406840F4AE
:104AA000E81048600846006840F08070086000BF69
:104AB0004548006800F000700028F9D0424840687E
:104AC00020F00300404948600846406840F002007A
:104AD000486000BF3C48406800F00C000828F9D14D
:104AE0000CBD10B5FFF792FF10BD10B53648006839
:104AF00040F00100344908600846406834490840E5
:104B00003149486008460068324908402E4908602B
:104B10000846006820F4802008600846406820F4B9
:104B2000FE0048604FF41F008860FFF7DAFF4FF087
:104B300000602949086010BD10B500210020002246
:104B4000214B5B6803F00C0121B1042906D0082930
:104B500028D107E0214B224C236027E01F4B204C3B
:104B6000236023E0184B5B6803F47010164B5B68FE
:104B700003F48032022303EB904022B9194B4343E4
:104B8000174C23600DE0104B5B6803F4003323B136
:104B9000144B4343124C236003E0104B4343104C2F
:104BA000236003E00D4B0E4C236000BF00BF064B9B
:104BB0005B68C3F303130C4CE15C094B1B68CB40EF
:104BC000074C236010BD000000100240002002408E
:104BD0000000FFF8FFFFF6FE08ED00E000127A008B
:104BE000C401002000093D00C8010020421E12F847
:104BF000013F002BFBD111F8013B002B02F8013BD8
:104C0000F9D170474FF0000200B51346944696461E
:104C1000203922BFA0E80C50A0E80C50B1F12001CF
:104C2000BFF4F7AF090728BFA0E80C5048BF0CC07D
:104C30005DF804EB890028BF40F8042B08BF7047DB
:104C400048BF20F8022B11F0804F18BF00F8012B4D
:104C50007047704770477047754600F029F8AE46B8
:104C600005006946534620F00700854618B020B578
:104C7000FFF7BAFEBDE820404FF000064FF00007F6
:104C80004FF000084FF0000B21F00701AC46ACE8F4
:104C9000C009ACE8C009ACE8C009ACE8C0098D4661
:104CA00070470446AFF300802046FBF78AFA000005
:104CB00000487047380A002001491820ABBEFEE7C3
:104CC0002600020070470000E84C000800000020A9
:104CD000D801000028010008284D0008D801002054
:104CE000C00E00008C01000802160001300B3031AC
:104CF00032333435363738390F00049BFFFFFF0459
:104D00002230B30199040122010623018B20050101
:104D100002030404140906070809020406089D702A
:084D200004A24A0444511A00E8
:04000005080000ED02
:00000001FF
